:100000000C9437000C94600D0C94600D0C94600DF2
:100010000C94600D0C94600D0C94600D0C94600DAC
:100020000C94600D0C94600D0C94600D0C94600D9C
:100030000C94600D0C94600D0C94600D0C94600D8C
:100040000C94600D0C94600D0C94600D0C94600D7C
:100050000C94600D0C94600D0C94600D0C94600D6C
:100060000C94600D0C94600D0100010280001124BD
:100070001FBECFEFD8E0DEBFCDBFE8E6F0E040E046
:1000800017C0B591A59135912591059107FD0CC03B
:1000900095918591EF01F92FE82F05900D92A21708
:1000A000B307D9F7FE0104C01D92A217B307E1F709
:1000B000ED36F40731F70E948D0B0C942A0DF8945D
:0200C000FFCF70
:1000C200506F74313A2025752C20506F74323A20CB
:0F00D20025752C204572726F723A2025640A0042
:1000E10068076C094C836A9074A07AC000806888A4
:0600F10000846C82008116
:0700F700286E756C6C2900F6
:0600FE00286E696C290068
:10010400A3EAB0E0E8E8F0E00C94430C4C01590198
:10011400C756DF4F488359836A83C959D040212C7D
:10012400312C6E012BE8C20ED11C85E2782E2601FB
:1001340030E8632ECE018D569F4FC456DF4F99830E
:100144008883CC59D0409C0140E8CF55DF4F2883A9
:1001540039834A83C15AD040C756DF4F4881C959B1
:10016400D040C656DF4F5881CA59D040C556DF4FDC
:100174006881CB59D040FA01849167FD808188233E
:1001840009F4C9C3CF57DF4F19821882C158D04030
:100194008FEF9FEFCD57DF4F99838883C358D040AB
:1001A400CB57DF4F19821882C558D040A1E0B0E088
:1001B400AC0FBD1FC957DF4FB983A883C758D040C0
:1001C400E0E8F0E0C757DF4FF983E883C958D0402F
:1001D400CA01A62FE12CF12CFC012491A7FD20815A
:1001E40021111BC0E114F10401F19701C4010E9423
:1001F400D10BC756DF4F88819981AA81C959D04054
:100204008E0D9F1DA11DF7FCAA95C756DF4F88834D
:100214009983AA83C959D04008C00196A11D2532EB
:1002240009F3FFEFEF1AFF0AD7CFC756DF4F8881D4
:100234009981AA81C959D040FC012491A7FD20814C
:10024400253209F056C39C014A2F2F5F3F4F4F4F71
:10025400C256DF4F288339834A83CE59D040C756CC
:10026400DF4F288339834A83C959D040C756DF4FAB
:1002740088819981AA81C959D040FC012491A7FDA4
:1002840020812B3241F4CF57DF4F28813981C15867
:10029400D04024600BC02C32CCF02D3259F5CF570E
:1002A400DF4F28813981C158D0402160CF57DF4FBB
:1002B40039832883C158D0400196A11DC756DF4F0A
:1002C40088839983AA83C959D040D0CF203241F47E
:1002D400CF57DF4F28813981C158D0402860E6CFFD
:1002E400233291F4CF57DF4F28813981C158D04050
:1002F4002061DCCF203341F4CF57DF4F288139818F
:10030400C158D0402260D2CF2A3299F50196A11D5E
:10031400C756DF4F88839983AA83C959D040D50132
:10032400ED91FC911197CF0102968D939C9380815E
:100334009181CB57DF4F99838883C558D04097FF6D
:100344003EC0CF57DF4F28813981C158D040B1E03A
:100354002B27CF57DF4F39832883C158D04091953D
:1003640081959109CB57DF4F99838883C558D04035
:1003740026C0BC018A2F0E94450BCB57DF4F9983BF
:100384008883C558D040C756DF4F288139814A81B8
:10039400C959D040F901849147FD8081082E000C91
:1003A400990BC0970A9758F42F5F3F4F4F4FC7568A
:1003B400DF4F288339834A83C959D040E4CFCF57CC
:1003C400DF4F88819981C158D04080FF07C08D7F5D
:1003D400CF57DF4F99838883C158D040C756DF4F2A
:1003E40088819981AA81C959D040FC012491A7FD33
:1003F40020812E3209F058C0CD57DF4F1982188260
:10040400C358D0409C014A2F2F5F3F4F4F4FC756D0
:10041400DF4F288339834A83C959D040F901549165
:1004240047FD50815A32D1F40296A11DC756DF4FC1
:1004340088839983AA83C959D040D501ED91FC9151
:100444001197CF0102968D939C9380819181CD5712
:10045400DF4F99838883C358D04026C0842FB901C5
:100464000E94450BCD57DF4F99838883C358D040F2
:10047400C756DF4F288139814A81C959D040F901D3
:10048400849147FD8081082E000C990BC0970A9730
:1004940058F42F5F3F4F4F4FC756DF4F28833983A0
:1004A4004A83C959D040E4CFCE0187569F4F0E945A
:1004B400AD0A182FC756DF4F2881C959D040C656F8
:1004C400DF4F8881CA59D040C556DF4F9881CB5938
:1004D400D040E22FF82F849197FD8081082E000CE4
:1004E400990B0E94470D8936910509F45AC0B4F45A
:1004F4008336910509F466C144F48532910509F403
:10050400A1C18136910529F1B3C18436910509F45D
:1005140048C0883691050CF42DC1AAC180379105D5
:1005240009F4CBC04CF48E36910509F419C18F3609
:10053400910509F47CC09CC18537910509F454C028
:100544008837910509F496C08337910509F090C165
:1005540058C1612F70E0A501C6010E94050C892BCA
:1005640009F4B7C1C756DF4F88819981AA81C95957
:10057400D0409C014A2F2F5F3F4F4F4FC756DF4F4C
:10058400288339834A83C959D040FC012491A7FDAB
:100594002081A601BE016F577F4FC4010E945D0DEB
:1005A40095C1612F70E0950141E050E0C6010E94C1
:1005B4009206892B09F48DC1C756DF4F8881998132
:1005C400AA81C959D0400196A11DC756DF4F88831F
:1005D4009983AA83C959D040A601BE016F577F4FA2
:1005E400C4010E94D30572C1612F70E0950140E0FF
:1005F40050E0C6010E949206892B09F46AC1C756CD
:10060400DF4F88819981AA81C959D0400196A11DE3
:10061400C756DF4F88839983AA83C959D040A6015E
:10062400BE016F577F4FC4010E94B2094FC1612FB1
:1006340070E0950140E050E0C6010E949206892BCB
:1006440009F447C1C756DF4F88819981AA81C959E6
:10065400D0400196A11DC756DF4F88839983AA8392
:10066400C959D040A601BE016F577F4FC4010E94F3
:10067400E3082CC1612F70E0950140E050E0C60111
:100684000E949206892B09F424C1C756DF4F888142
:100694009981AA81C959D0409C014A2F2F5F3F4FAD
:1006A4004F4FC756DF4F288339834A83C959D040F7
:1006B400FC012491A7FD20814BC0950140E050E04E
:1006C40060EF70E0C6010E949206892B09F401C113
:1006D400C756DF4F88819981AA81C959D0400196B4
:1006E400A11DC756DF4F88839983AA83C959D04077
:1006F40086E02EEF30E040E0F901DE01AD56BF4F59
:10070400742F0E94060DD6012C9111963C911197DD
:1007140012964C91129713965C91139714966C91C0
:10072400149715967C91159716968C911697179693
:100734009C91A0E00E94130D51F400E010E0CF550D
:10074400DF4F288139814A81C15AD040B9C028E796
:10075400A601BE016F577F4FC4010E949304B6C027
:10076400612F70E09501A1014E0D5F1DC6010E942D
:100774007708AFC0612F70E0A501C6010E94050C87
:10078400892B09F4A6C0C756DF4F88819981AA81B5
:10079400C959D0409C014A2F2F5F3F4F4F4FC75636
:1007A400DF4F288339834A83C959D040FC012491FF
:1007B400A7FD2081A601BE016F577F4FC4010E948F
:1007C4005D0D84C0103809F084C0C756DF4F88819E
:1007D4009981AA81C959D0400196A11DC756DF4FFE
:1007E40088839983AA83C959D040D501ED91FC919E
:1007F4001197CF0102968D939C938081F60180839B
:100804005BC0103809F065C0C756DF4F88819981F5
:10081400AA81C959D0400196A11DC756DF4F8883CC
:100824009983AA83C959D040D501ED91FC911197C0
:10083400CF0103968D939C9320813181428100E006
:1008440010E03EC0103809F044C0C756DF4F88811D
:100854009981AA81C959D0400196A11DC756DF4F7D
:1008640088839983AA83C959D040F601708224C031
:10087400D6017C92C256DF4F288139814A81CE59F4
:10088400D040C756DF4F288339834A83C959D040A3
:10089400CF57DF4F19821882C158D040CB57DF4F52
:1008A40019821882C558D0408FEF9FEFCD57DF4F84
:1008B40099838883C358D04001E010E0462D92010B
:1008C400BE016F577F4FC4010E944D098E0D9F1DBD
:1008D40011C0C756DF4F88819981AA81C959D04078
:1008E4000196A11DC756DF4F88839983AA83C959EE
:1008F400D040C7017101E80EF91EE214F3044CF470
:100904008FE490E090930101809300018FEF9FEFBB
:1009140003C0170121CCC101CD55DF4FE2E10C9496
:020924005F0C66
:10092600A4E1B0E0E9E9F4E00C94430C98878F83E6
:100936007A8369835C8B4B8B122FDB011296ED91C8
:10094600FC91139714962D913C9115973E832D8318
:10095600ED90FC90119716962D903C901797F7FD09
:1009660003C0E894E1F802C0E1E0F0E0C70180715D
:1009760099279A878987E4FE1FC0AB89BC892C9189
:1009860011963C91119712964C91129713965C9181
:10099600139714966C91149715967C911597169645
:1009A6008C91169717969C91A0E00E94130D21F04A
:1009B6008D819E81029702C08D819E81970128704C
:1009C60033273C872B87E3FC0197AB89BC894C9086
:1009D60011965C90119712966C90129713967C90D4
:1009E600139714968C90149715969C9015971696B7
:1009F600AC9016971796BC90A981BA811896CD909F
:100A0600DC901997B1E0CB1AD108D101AC0DBD1D10
:100A16001C929C838B839F01281B390B3E872D8755
:100A2600C70182709927988B8F87812F012E000C22
:100A3600990BDC01A154B109BA8BA98B32E0C3161C
:100A4600D10434F489859A85892B09F04CC073C08A
:100A56009201A301B401C501A0E00E94130D81F12A
:100A6600B1E0CB1AD108C2018F7099278A3091055F
:100A760014F4C09602C0895A9F4FE989FA897A9779
:100A860048F49C012062215631092A31310510F4BF
:100A96000E943E0DF101EC0DFD1D80832B813C81F2
:100AA600215031093C832B839201A301B401C50176
:100AB60004E00E94270C29013A014B015C01BECFDC
:100AC6008D859E85AB81BC818A0F9B1F18161906E2
:100AD6003CF21A161B060CF0B5CFEF85F889EF2B02
:100AE60009F0BECFAFCFAB89BC892C9111963C9152
:100AF600119712964C91129713965C911397149630
:100B06006C91149715967C91159716968C9116975D
:100B160017969C91A0E00E94130D69F0F101EC0D6F
:100B2600FD1D31971083B2E0CB1AD108F101EC0D0F
:100B3600FD1D80E38083EB85FC85EF2B41F0F1E022
:100B4600CF1AD108F101EC0DFD1D80E28083A98149
:100B5600BA8118962D913C911997215031092C197B
:100B66003D09C20CD31CA60160E80D811E818F8150
:100B760098850E94F0079C01EF81F885808191811C
:100B860090FF09C0A981BA8112968D919C91139705
:100B9600821793070CF4C9016496E2E10C945F0C8A
:100BA600ADE0B0E0E9EDF5E00C94430C9A87898757
:100BB6007C836B83FA01DB011296CD90DC90139750
:100BC60014968D919C9115979E838D83ED90FC9044
:100BD6001197FA82E98216960D90BC91A02DB887DE
:100BE600AF83208031804280538064807580868008
:100BF60097808101B42DF52DE62D7B868C869D860A
:100C06009101A201B301C401A0E00E94130D4CF4AE
:100C16000E94E80C8901B42FF52FE62F7B878C877D
:100C26009D87D7FC04C0E894E1F8FA82E982910135
:100C3600A201B301C401A0E0ED80FE800E94130D65
:100C46001CF0898182FF04C081E0E81AF10805C022
:100C560083FF03C091E0E91AF108CE0101965C0119
:100C66008AE0C82ED12C2B2F3F2F4E2F5B856C850B
:100C76007D858B819C810E944B07FC019101A2011D
:100C8600B301C401A0E00E94130D1CF0898182FF0C
:100C960012C031970F8118850E0F1F1F9101A201F7
:100CA600B301C401A0E00E94130D14F08BE201C051
:100CB6008DE2D80108C083FF07C03197AF81B885A0
:100CC600AE0FBF1F80E28C93E980FA80AB81BC81B6
:100CD60018962D913C911997215031092E1B3F0BE7
:100CE6008F819885E80FF91FAF0160E80D811E819D
:100CF60089859A850E94F0079C01A985BA858D9100
:100D06009C9190FF07C0EB81FC81828193818217C1
:0E0D160093070CF4C9012D96E2E10C945F0CDA
:100D24000F931F93CF93DF93FC01D90168387105AA
:100D340031F194F461387105B1F12CF46038710526
:100D440009F478C09FC06238710509F459C0643849
:100D5400710509F46FC096C0603A710509F448C082
:100D64002CF46039710509F44BC08CC0603C7105EA
:100D740009F476C0603F710509F472C083C0CD9157
:100D8400DC911197CE0102968D939C93452B39F0FB
:100D94009881892F880F880B908381835BC0888119
:100DA4008083118268C0CD91DC911197CE010496A5
:100DB4008D939C93452B99F088819981AA81BB815D
:100DC400AC01BD01770F440B542FBA01808391838A
:100DD400A283B383448345834683478328C0088121
:100DE40019812A813B81008311832283338345C087
:100DF400CD91DC911197CE0102968D939C9323C0E3
:100E0400CD91DC911197CE0108968D939C937881B6
:100E140069815A814B813C812D819E818F817083B0
:100E2400618352834383348325839683878381E05C
:100E340090E02AC0CD91DC911197CE0102968D935A
:100E44009C93452BA1F099812881892F880F880BC9
:100E54002083918382838383848385838683E6CFFF
:100E6400CD91DC911197CE0102968D939C930881CC
:100E740019810083118312821382148215821682CF
:100E84001782D5CF80E090E0DF91CF911F910F9131
:020E94000895BF
:100E9600A2E1B0E0E1E5F7E00C94430CFC010A8B1B
:100EA6001B832C83732E642E552E462E7D83CC8673
:100EB600D886BF82AE82868197819B878A87D50135
:100EC6004D915C91228133818085918501971C012A
:100ED60037FF02C021E030E0EA85FB85E80FF91F05
:100EE60010824701E1E0F0E0FA83E983C9018E1937
:100EF6009F099E878D87DA01A270BB27B88BAF87C3
:100F0600B885BB0FBB0BB98B1214130474F0A981FF
:100F1600BA81AB2B09F05CC0AE81BF818D919C91EB
:100F260011978F7E8D939C9353C02A893B814C8168
:100F3600572D662D752D842D9D81A0E00E94130DE1
:100F4600B1F1E1E02E1A3108FC85F987AF2EB8849D
:100F5600C988DC2CEC2CFC2C0C2D1C2D2A893B8101
:100F66004C81572D662D752D842D9D810E94F80C80
:100F7600C90129839A83EA85FB85E20DF31D805D0D
:100F8600808381E0881A91082A893B814C81572DFC
:100F9600662D752D842D9D810E94FA0C2A8B3B832C
:100FA6004C83752E662E572E482E9D83ADCF8D858C
:100FB6009E85880D991D181619061CF21814190419
:100FC6000CF0A5CFEF85F889EF2B09F0BACF9FCFAC
:0A0FD600C1016296E2E10C945F0C89
:100FE0002F923F924F926F927F928F92AF92BF92C9
:100FF000CF92DF92EF92FF920F931F93CF93DF93E5
:10100000CDB7DEB766970FB6F894DEBF0FBECDBF83
:101010005C013A01862E6901C701817099279C8B7A
:101020008B8BE0FC1DC020173107D4F47801EC183D
:10103000FD08FE8AED8AA70191E1E916F10410F09E
:1010400040E150E060E270E0CE0101969A8B898B1E
:101050000E94350D89899A891C0120E8422E0BC017
:101060009601682DA301C5010E94D10BC016D106BF
:10107000ECF2C60125C090E1E916F10458F020E138
:1010800030E0642DA101C5010E94D10B80E1E81A76
:10109000F108F1CF2D893E892F70332789899A89EC
:1010A000AC0160E8C5010E94D10B8B899C89892B1A
:1010B00031F49601682DA301C5010E94D10BC8012E
:1010C00066960FB6F894DEBF0FBECDBFDF91CF910D
:1010D0001F910F91FF90EF90DF90CF90BF90AF9056
:0E10E0008F907F906F904F903F902F900895CB
:1010EE00CF93DF93DC01F90164387105D9F164F413
:1010FE006138710521F16238710509F440C060381C
:10110E00710509F054C02EC060397105C1F184F427
:10111E006838710509F04BC0C081D181CE010296AD
:10112E0091838083E881F981ED93FC9340833CC0E9
:10113E00603A7105B9F0603C7105A1F038C0C0810C
:10114E00D181CE01029691838083E881F981ED935E
:10115E00FC93052E000C660B770B40835183628344
:10116E00738322C0C081D181CE0102969183808388
:10117E00E881F981ED93FC935183408315C0C081C2
:10118E00D181CE01029691838083E881F981ED931E
:10119E00FC9351834083852F880F880B8283838332
:1011AE00848385838683878381E090E002C080E01C
:0811BE0090E0DF91CF9108954C
:1011C600A2E0B0E0E9EEF8E00C94430C1C014B0100
:1011D600FA01DB0112962D913C91139714964D90CE
:1011E6005C9015978D919C9111979A838983169699
:1011F6006D907C90179737FD03C08D7F9A83898306
:1012060000811181228133814481558166817781F4
:10121600FE0131965F0188E0C82ED12C7201C4010F
:101226000E944B07298124FF06C00197F301E80FAE
:10123600F91F20E32083298123FF06C00197F301CC
:10124600E80FF91F20E22083E980FA80D40118967E
:101256002D913C91199721503109281B390B860D88
:10126600971DAC0160E88201C1010E94F0079C0154
:10127600F1018081918190FF08C0D40112968D9171
:101286009C911397821793070CF4C9012296E2E109
:041296000C945F0C49
:10129A002F923F924F926F927F928F92AF92BF920C
:1012AA00CF92DF92EF92FF920F931F93CF93DF9328
:1012BA00CDB7DEB727970FB6F894DEBF0FBECDBF06
:1012CA006C017B013901842E980187EF282E80E07A
:1012DA00382E80E0482E87E0F101AE014F5F5F4F64
:1012EA00DA01742D0E94060DF70102811381A48090
:1012FA00B580E080F18061147104810419F43A0127
:10130A00F0E88F2E2115310529F4882DB3010E94AA
:10131A00A80C9C0117FD04C00217130708F49801D2
:10132A008501682DA301C6010E94F00727960FB612
:10133A00F894DEBF0FBECDBFDF91CF911F910F9101
:10134A00FF90EF90DF90CF90BF90AF908F907F90FB
:0A135A006F904F903F902F90089580
:10136400A2E0B0E0E8EBF9E00C94430C3C014B0143
:10137400FA01DB0112962D913C91139714964D902E
:101384005C9015978D919C9111979A8389831696F9
:101394002D903C90179737FD03C08D7F9A838983E6
:1013A4000081118122813381448155816681778155
:1013B400FE0131965F018AE0C82ED12C7201C4016E
:1013C4000E944B07E980FA80D40118962D913C9134
:1013D400199721503109281B390B820D931DAC013B
:1013E40060E88201C3010E94F0079C01F30180813F
:1013F400918190FF08C0D40112968D919C9113970E
:10140400821793070CF4C9012296E2E10C945F0C55
:101414006F927F928F92EF92FF920F931F93CF93CD
:10142400DF93CDB7DEB761970FB6F894DEBF0FBE7A
:10143400CDBFFE01319651E1DF011D925A95E9F7C6
:10144400A2E0B1E0BA83A9839C838B8377FF09C0B0
:101454008FE490E090930101809300018FEF9FEF60
:1014640019C03901842E7C01615071097F836E8318
:101474009801682DA301CF010E947A0C48855985F3
:101484002E813F814217530708F49A01F701E20FB6
:10149400F31F108261960FB6F894DEBF0FBECDBF66
:1014A400DF91CF911F910F91FF90EF908F907F90DC
:0414B4006F90089598
:1014B80088249924F401E401B0E49F93AA279A159B
:1014C8008B049C04ED05FE05CF05D007A10798F411
:1014D800AD2FDC2FCF2FFE2FE92D982C892E982F9A
:1014E800872F762F652F542F432F322F2227B8505E
:1014F80031F7BF9127C01B2EBF91BB27220F331F87
:10150800441F551F661F771F881F991F881C991C29
:10151800EE1FFF1FCC1FDD1FAA1FBB1F8A149B04D1
:10152800EC05FD05CE05DF05A007B10748F08A18D0
:101538009B08EC09FD09CE09DF09A00BB10B21605E
:101548001A94E1F62EF49401AF01BE01CD01000C0E
:021558000895F4
:10155A00CF92DF92EF92DC0190E0292F30E0220F48
:10156A00331F6901032E000CEE086E2DA6014F51A0
:10157A005F4F6F4F6A01E62EFA018491E7FC808182
:10158A0081110DC02F5F3F4F032E000C440B2F51CA
:10159A003F4F4F4FF901849147FD808124C0CD9080
:1015AA00DD90EC901297F6014491E7FC4081841398
:1015BA0015C02F5F3F4F032E000C440B2F513F4F96
:1015CA004F4FF901949147FD90815FEFC51AD50AF3
:1015DA00E50ACD92DD92EC92129701C09F5F9B3093
:0E15EA0008F4BBCF892FEF90DF90CF900895CB
:1015F8000F931F93CF93DF93DB012D913C911197AC
:1016080030FF25C017964D915C91189715962D912E
:101618003C9116974217530778F41296ED91FC9176
:101628001397808312962D913C9113972F5F3F4F0C
:1016380013963C932E93129717962D913C911897D9
:101648002F5F3F4F18963C932E93179715C01D9602
:10165800ED91FC911E97309719F48FEF9FEF0CC016
:101668008B01EC010995892BC1F7F80187819085D9
:10167800019690878783CE01DF91CF911F910F91BB
:021688000895C3
:10168A00CF939B01482FF901849147FD80818032D5
:10169A00C9F1682F082E000C770B69507109653063
:1016AA00710580F18B3249F5A0E0B0E02F5F3F4F22
:1016BA004F4F02C0A0E0B0E080E090E0CAE0F9013C
:1016CA00649147FD6081062E000C770B6053710907
:1016DA006A30710560F4C89FF001C99FF00D1124AA
:1016EA002F5F3F4F4F4FCF01861B970BE8CFAB2B96
:1016FA0069F491958195910909C08D32D9F6A1E0D5
:10170A00B0E0D4CF2F5F3F4F4F4FBDCFCF91089559
:10171A00CF93DF93CDB7DEB7C054D1090FB6F89493
:10172A00DEBF0FBECDBF87E690E00E941F0D0E946C
:10173A00560D80E00E94BE0C8C0181E00E94BE0C16
:10174A009801281B390B3F932F939F938F931F93D5
:10175A000F9382EC90E0A0E0AF939F938F931F9238
:10176A0080E48F938E010F5F1F4F1F930F930E9488
:10177A00D30CB80180E80E94920C2FE986E891E028
:10178A00215080409040E1F700C000000FB6F89465
:08179A00DEBF0FBECDBFCDCFB5
:1017A2006F927F928F92CF92DF92EF920F931F935D
:1017B200CF93DF938C016A01E62EE9013A01862E6E
:1017C200620E731E811C37FD8A94C614D704E80486
:1017D20079F0F6018491E7FC8081B801082E000CB3
:1017E200990B0E94FC0A8FEFC81AD80AE80AEDCFBB
:1017F200CE01DF91CF911F910F91EF90DF90CF90AB
:081802008F907F906F90089514
:10180A00FA0160387105CCF0623871051CF0633852
:10181A00710599F4A081B1819D012C5F3F4F3183FD
:10182A0020834D915D916D917C91FC0140835183A0
:10183A006283738381E090E0089580E090E00895E8
:10184A0097FB10F8169400080F93083098F0085088
:10185A00232F342F452F562F672F782F892F902D1E
:10186A00F4CF0594979587957795679557954795FA
:0C187A00379527950A95AAF70F9108955D
:101886002F923F924F925F926F927F928F929F928A
:10189600AF92BF92CF92DF92EF92FF920F931F9378
:1018A600CF93DF93CDB7DEB7CA1BDB0B0FB6F89429
:0818B600DEBF0FBECDBF099497
:1018BE002A88398848885F846E847D848C849B84D2
:1018CE00AA84B984C884DF80EE80FD800C811B81E0
:1018DE00AA81B981CE0FD11D0FB6F894DEBF0FBE0F
:0618EE00CDBFED010895DD
:1018F400A2E0B0E0E0E8FCE00C94510C8C013A83E7
:1019040029839E012F5F3F4F0E948200F8012081AE
:1019140024FF02C08FEF9FEF2296E4E00C946D0C3D
:10192400CF92DF92EF926B01E82E06C09FEFC91AA7
:10193400D90AE90A0E944F0DF6018491E7FC8081DF
:0C1944008111F4CFEF90DF90CF90089558
:10195000CF92DF92EF926B01E82EA82FCB01FC0112
:101960002491A7FD2081222319F00196A11DF7CF14
:0C1970008C199D09EF90DF90CF90089536
:10197C00ECE7F0E09081907F8F70892B8083EAE711
:10198C00F0E080818064808380917A0086FDFCCFBA
:0A199C008091780090917900089581
:1019A600A0E0B0E0E9EDFCE00C94510C8E01025F82
:1019B6001F4F2B853C854D8569857A858F81988556
:0A19C6000E940A0AE4E00C946D0C84
:1019D000609570958095909530954095509521959E
:1019E0003F4F4F4F5F4F6F4F7F4F8F4F9F4F089528
:1019F000689401C0E8948F929F92CF93DF930E94E6
:0C1A00005C0ADF91CF919F908F900895B9
:101A0C00992777FD05C005900D920197E1F7089590
:0A1A1C0001900D920197E1F7089583
:101A26000024A7FD00942A173005400550056005DF
:081A360070058005900508957C
:101A3E009093C5008093C40088E18093C10086E036
:061A4E008093C200089520
:101A5400EC010E94650D0E94640DCE010E94660D8A
:061A6400CE010E94620D9C
:101A6A00FC01480F591FE417F50711F06193FBCFEA
:021A7A000895CD
:101A7C009C01215631092A31310510F48F759927B3
:021A8C000895BB
:101A8E009C01215431092A31310508F480620895F0
:0E1A9E009091C00095FFFCCF8093C600089584
:0E1AAC0080E480937C0086E880937A000895A1
:061ABA0080E090E00895B9
:041AC0000C94000082
:041AC4000E945F001D
:021AC80008957F
:021ACA0008957D
:021ACC0008957B
:00000001FF
